:0F096600435245415445442042592057504300C5
:04085900022C00006D
:100457001200031209101209567F801208DFC3E544
:100467002E648094805010C3E4952FF52FE4952EC9
:10047700F52E7F2D1208A47F541208A47F45120879
:10048700A47F4D1208A47F501208A47F3A1208A433
:10049700AE2EAF2F7C037DE81201ECEF2430FF1264
:1004A70008A4AE2EAF2F7C037DE81201EC7E007FFF
:1004B70064CFCDCFCECCCE1201ECEF2430FF1208A3
:1004C700A47F2E1208A4AE2EAF2F7C007D641201EC
:1004D700EC7E007F0ACFCDCFCECCCE1201ECEF243D
:1004E70030FF1208A4AE2EAF2F7C007D0A1201EC5C
:1004F700ED2430FF1208A47F271208A47F431208B7
:10050700A47BFF7A0979667D01E4FF1205180204CE
:010517006083
:03000B000206C921
:1006C900C0E0C0F0C083C082C0D075D000C000C0F7
:0D06D90001C002C003C004C005C006C00778
:1006E600052DE52D7002052C6414452C7018F52C8B
:1006F600F52D12064EE4FBFA79C8784212000E1266
:0C07060001528E2E8F2F758C3C758AB02E
:10071200D007D006D005D004D003D002D001D0003B
:0B072200D0D0D082D083D0F0D0E032E5
:0B097500EF1FAC0670011E4C70F62254
:10085D00070F81838587898B8D0708808284868821
:0B086D008A8C07164751162805052449
:1007FE00E4FEC2B500C2B600D2B500EF1392B4EF5C
:10080E00C313FFD2B600C2B6000EBE08EEE4FEED74
:10081E001392B4EDC313FDD2B600C2B6000EBE08DD
:04082E00EEC2B50061
:0108320022A3
:10072D00E4FEFDFBC2B500C2B600D2B500EF1392D8
:10073D00B4EFC313FFD2B600C2B6000EBE08EEE48E
:10074D00FEA2B4E433FDC43333335480FFEBC31343
:10075D004FFBD2B600C2B6000EBE08E5C2B500D240
:0A076D00B600C2B400D2B400AF031E
:01077700225F
:10087C00E4FCFD7F8E1207FE74082CF8E6FF74165C
:10088C002CF8E6FD1207FE0CBC07ED7D807F8E0276
:02089C0007FE55
:1008FA00E4FC740F2CF8E6FF12072D74162CF8A6E8
:05090A00070CBC07ED25
:01090F0022C5
:030878000132004A
:1008DF00C2A6C2A5C2A78F807F647E00120975D2FF
:0B08EF00A77F647E00120975C2A722DB
:06089E00C4540F2430FFDA
:1008A400D2A6C2A5C2A78F807F647E00120975D22A
:0B08B400A77F647E00120975C2A72216
:100910007F381208DF7F0C1208DF7F061208DF7FA6
:04092000010208DFE9
:050980007F010208DF09
:080518008F278B288A29892A0C
:10052000E4F52BEDD3940140030205C1E527940FB8
:1005300040030205C1EDC394015043AB28AA29A989
:100540002A1201D3607BC374109527FFE52BC39F4C
:10055000E52B5006248025278004252724B0FF1290
:1005600008DFAB28AA29A92A1201D3FF1208A47414
:1005700001252AF52AE43529F529052B80BDAB286C
:10058000AA29A92A1201D36038C374109527FFE560
:100590002BC39FE52B500624C02527800425272444
:1005A00070FF1208DFAB28AA29A92A1201D3FF1273
:1005B00008A47401252AF52AE43529F529052B809C
:0105C000BD7D
:0105C1002217
:100285007FC01208DFE51812089EE51812089F7F47
:100295002D1208A4E51712089EE51712089F7F2D59
:1002A5001208A4E51612089EE51612089F7F801213
:1002B50008DF7F321208A47F301208A4E51C12085B
:1002C5009EE51C12089F7F2D1208A4E51A12089EB0
:1002D500E51A12089F7F2D1208A4E51912089EE55C
:1002E5001912089F7F201208A4E51B5407FFBF01C0
:1002F500097F4D1208A47F6F802FE51B5407FFBFB0
:1003050002137F541208A47F751208A47F65120892
:10031500A47F73806EE51B5407FFBF03137F57123D
:1003250008A47F651208A47F641208A47F6E805319
:10033500E51B5407FFBF04137F541208A47F6812FE
:1003450008A47F751208A47F728038E51B5407FF47
:10035500BF050E7F461208A47F721208A47F69802C
:1003650022E51B5407FFBF060E7F531208A47F61C9
:100375001208A47F74800C7F531208A47F7512089D
:10038500A47F6E1208A40532E53275F03284E5F0DB
:10039500701412064EE4FBFA7920784112000E1211
:1003A50001528E308F317FC91208DFC3E53064807A
:1003B50094805010C3E49531F531E49530F5307FE4
:1003C5002D1208A4AE30AF317C037DE81201ECEFAD
:1003D5002430FF1208A4AE30AF317C037DE8120152
:1003E500EC7E007F64CFCDCFCECCCE1201ECEF24D6
:1003F50030FF1208A4AE30AF317C037DE81201EC6A
:100405007E007F64CFCDCFCECCCE1201EC7E007FB7
:100415000ACFCDCFCECCCE1201ECEF2430FF12089F
:10042500A47F2E1208A4AE30AF317C037DE8120103
:10043500EC7E007F64CFCDCFCECCCE1201EC7E001A
:100445007F0ACFCDCFCECCCE1201ECED2430FF020A
:0204550008A4F9
:10092400C2B77F4B7E00120975D2B77F027E0002E8
:02093400097543
:10077800E4F52730B712E527C39414500B05277FFB
:10078800017E0012097580EBE527C3941440037FAE
:100798000122E4F52720B712E527C39414500B056E
:1007A800277F017E0012097580EBE527C39414406A
:0607B800037F01227F0017
:0107BE002218
:1008BF00E4F526C2B70000D2B7000030B7057526A1
:0F08CF00018003E4F5267F057E00120975AF2630
:0108DE0022F7
:10083300E4F524F525FFF5241208BFEFC433333361
:100843005480FEE525C3134EF5250524E524C39402
:050853000840E5AF259F
:01085800227D
:0207BF008F2485
:1007C100E4F525F526F525E5245401F526E524C3B0
:1007D10013F524E526600FC2B70000D2B77F067E6D
:1007E10000120975800DC2B77F067E00120975D20D
:0C07F100B700000525E525C3940840CBA7
:0107FD0022D9
:100936001209241207787FCC1207BF7F440207BF33
:070003001209241207782204
:10064E00E4FFF521F522F5231209361209241207CB
:10065E00787FCC1207BF7FBE1207BF1208338F21DF
:10066E00120833EFFE7C00E42521F523EC3EF52243
:10067E0054F8FEEEB4F821E523F4FFE522F4FEEF84
:10068E002401F523E43EF522FCAD23E4120119E426
:10069E00FBFA798078BD800FAC22AD23E4120119EC
:1006AE00E4FBFA7980783D12000E8F208E1F8D1E8E
:0A06BE008C1DAF20AE1FAD1EAC1D59
:0106C800220F
:10094600758901758CFC758A18D2A9D2AFD28C2212
:10095600758901758C3C758AB0D2A9D2AFD28C222A
:10000E00EC4D6011E8497017ED33EC3304600DE4EC
:10001E00FCFFFEFD22E933E8330470F80201BE1244
:10002E00018958046009E4CC248150062850090245
:10003E0001C82840030201C5C0E0EB4A7044B980F4
:10004E0006D0E0FB0201B4EF4E701CBD8008EBFF42
:10005E00EAFEE9FD80EBE98DF0A4FEE5F00200F783
:10006E00E9CDF9EAFEEBFFEF89F0A4FCE5F0CE89CD
:10007E00F0A42EFFE435F0CD89F0A42DFEE435F08A
:10008E008067EF4E7005BD80D780C3EF8BF0A4ACB8
:10009E00F0EE8BF0A42CFCE435F0F8EF8AF0A42CF3
:1000AE00E5F038FCE433CB8DF0A42CFCE5F03BF806
:1000BE00EE8AF0A42CFCE5F038F8E433CF89F0A4F6
:1000CE002CFCE5F038CF3400CE89F0A42FFFE5F0FC
:1000DE003EFEE433C98DF0A42EFEE5F039CD8AF054
:1000EE00A42FFFE5F03EFEE43DFD33D0E0FB5007CC
:1000FE000BBB000F0201C8EC2CFCEF33FFEE33FEFE
:06010E00ED33FD0201A02B
:1001140075F020800E75F010800575F0087D007E66
:10012400007F003392D530D503120222EC33401005
:10013400EF33FFEE33FEED33FDEC33FCD5F0ED226F
:0E014400E5F0247EA2D513CC92E7CDCEFF22AB
:10015200EDD2E7CD33EC3392D524814006E4FFFEA5
:10016200FDFC22FCE4CFCECDCC24E0501174FF8004
:10017200EDC3CC13CCCD13CDCE13CECF13CF0470A1
:07018200F030D5DE0202227D
:10018900E9D2E7C933E833F892D5EDD2E7CD33ECBC
:0701990033FC5002B2D52235
:1001A000EC30E7100FBF000C0EBE00080DBD0004C0
:1001B0000BEB6014A2D5EB13FCED92E7FD2274FF6C
:1001C000FCFDFEFF22E480F8A2D574FF13FC7D80C5
:0301D000E480EFD9
:030000000205C234
:0C05C200787FE4F6D8FD7581320206094E
:1001D300BB010689828A83E0225002E722BBFE022A
:0901E300E32289828A83E493225D
:1001EC00C2D5EC30E709B2D5E4C39DFDE49CFCEE2E
:1001FC0030E715B2D5E4C39FFFE49EFE120230C374
:10020C00E49DFDE49CFC800312023030D507C3E46E
:06021C009FFFE49EFE229C
:0E022200C3E49FFFE49EFEE49DFDE49CFC22ED
:1005CE00020457E493A3F8E493A34003F68001F2E8
:1005DE0008DFF48029E493A3F85407240CC8C3332E
:1005EE00C4540F4420C8834004F456800146F6DFFD
:1005FE00E4800B0102040810204080900859E47E2C
:10060E00019360BCA3FF543F30E509541FFEE493F1
:10061E00A360010ECF54C025E060A840B8E493A3B8
:10062E00FAE493A3F8E493A3C8C582C8CAC583CAE3
:10063E00F0A3C8C582C8CAC583CADFE9DEE780BE9B
:01087B00007C
:10023000BC000BBE0029EF8DF084FFADF022E4CCB2
:10024000F875F008EF2FFFEE33FEEC33FCEE9DEC7B
:10025000984005FCEE9DFE0FD5F0E9E4CEFD22EDC1
:10026000F8F5F0EE8420D21CFEADF075F008EF2F0B
:10027000FFED33FD4007985006D5F0F222C398FDFC
:050280000FD5F0EA2299
:00000001FF
