:0F024E001200007F017E0012022C12021880FEA7
:0B025D00EF1FAC0670011E4C70F62273
:10022C0075A0FF7401A807088002C333D8FCF452F0
:02023C00A022FE
:10019A00E4F50DF50EAF0EAE0D12022C7F507EC3A4
:1001AA0012025D050EE50E7002050DC39408E50DF9
:0401BA00940040E18C
:0101BE00221E
:08026800021100000213000066
:10023E00758901758CFC758A18D2A9D2AFD28C2221
:03000B0002012DC2
:10012D00C0E0C0F0C083C082C0D075D000C000C098
:0D013D0001C002C003C004C005C006C00719
:10014A000512E51270020511B4E824E511B4031F83
:10015A00751100751200AF14AE1312022C0514E5C6
:10016A001470020513640845137004F513F5147529
:05017A008CFC758A18E1
:10017F00D007D006D005D004D003D002D001D000D4
:0B018F00D0D0D082D083D0F0D0E0327E
:1001E400C2A6C2A5C2A78F807F647E0012025DD220
:0B01F400A77F647E0012025DC2A722FC
:0A01BF00AB09AA0AA90B1201FFFF09
:1001C900D2A6C2A5C2A78F807F647E0012025DD22B
:0B01D900A77F647E0012025DC2A72217
:100218007F381201E47F0C1201E47F061201E47FAB
:04022800010201E4EA
:050003007F010201E491
:08000E008F088B098A0A890B97
:10001600E4F50CEDD3940140030200A0E508940F2B
:100026005078EDC394015039AB09AA0AA90B120105
:10003600FF6067C374109508FFE50CC39FE50C507D
:1000460006248025088004250824B0FF1201E41246
:1000560001BF7401250BF50BE4350AF50A050C8082
:10006600C7AB09AA0AA90B1201FF602EC37410952B
:1000760008FFE50CC39FE50C500624C02508800444
:1000860025082470FF1201E41201BF7401250BF547
:0A0096000BE4350AF50A050C80C7DB
:0100A000223D
:030000000200A15A
:0C00A100787FE4F6D8FD7581140200E8B9
:1001FF00BB010689828A83E0225002E722BBFE02FE
:09020F00E32289828A83E4932230
:1000AD0002024EE493A3F8E493A34003F68001F219
:1000BD0008DFF48029E493A3F85407240CC8C33354
:1000CD00C4540F4420C8834004F456800146F6DF23
:1000DD00E4800B0102040810204080900268E47E49
:1000ED00019360BCA3FF543F30E509541FFEE49318
:1000FD00A360010ECF54C025E060A840B8E493A3DF
:10010D00FAE493A3F8E493A3C8C582C8CAC583CA09
:10011D00F0A3C8C582C8CAC583CADFE9DEE780BEC1
:01027000008D
:00000001FF
