:0500030012013E80FE29
:0B014E00EF1FAC0670011E4C70F62283
:10012C0075A0FF7401A807088002C333D8FCF452F1
:02013C00A022FF
:10010700E4F508F509AF09AE0812012C7F507EC34C
:1001170012014E0509E50970020508C39408E508B0
:04012700940040E11F
:01012B0022B1
:08015900020C0000020E000080
:10013E00758901758CFC758A18D2A9D2AFD28C2222
:03000B0002009A56
:10009A00C0E0C0F0C083C082C0D075D000C000C02C
:0D00AA0001C002C003C004C005C006C007AD
:1000B700050DE50D7002050CB4E824E50CB4031F2B
:1000C700750C00750D00AF0FAE0E12012C050FE574
:1000D7000F7002050E6408450E7004F50EF50F75D6
:0500E7008CFC758A1875
:1000EC00D007D006D005D004D003D002D001D00068
:0B00FC00D0D0D082D083D0F0D0E03212
:0300000002000EED
:0C000E00787FE4F6D8FD75810F020055E4
:10001A00020003E493A3F8E493A34003F68001F2F9
:10002A0008DFF48029E493A3F85407240CC8C333E7
:10003A00C4540F4420C8834004F456800146F6DFB6
:10004A00E4800B0102040810204080900159E47EEC
:10005A00019360BCA3FF543F30E509541FFEE493AB
:10006A00A360010ECF54C025E060A840B8E493A372
:10007A00FAE493A3F8E493A3C8C582C8CAC583CA9D
:10008A00F0A3C8C582C8CAC583CADFE9DEE780BE55
:01016100009D
:00000001FF
