:020000040800F2
:1000000068070020ED080008E5040008E704000880
:10001000EB040008EF040008F304000800000000EF
:10002000000000000000000000000000F7040008CD
:10003000F904000800000000FB040008FD040008AB
:100040000709000807090008070900080709000850
:100050000709000807090008070900080709000840
:100060000709000807090008070900080709000830
:100070000709000807090008070900080709000820
:100080000709000807090008070900080709000810
:100090000709000807090008070900080709000800
:1000A00007090008070900080709000807090008F0
:1000B00007090008070900080709000807090008E0
:1000C00007090008070900080709000807090008D0
:1000D0000709000861080008070900080709000867
:1000E00007090008070900080709000807090008B0
:1000F00007090008070900080709000807090008A0
:10010000070900080709000807090008070900088F
:10011000070900080709000807090008070900087F
:10012000070900080709000807090008070900086F
:1001300000F002F800F03AF80AA090E8000C8244BF
:100140008344AAF10107DA4501D100F02FF8AFF29C
:10015000090EBAE80F0013F0010F18BFFB1A43F0A5
:1001600001031847F031000010320000103A24BF9C
:1001700078C878C1FAD8520724BF30C830C144BF0C
:1001800004680C607047000000230024002500264E
:10019000103A28BF78C1FBD8520728BF30C148BFEA
:1001A0000B6070471FB51FBD10B510BD02F0A3FD59
:1001B0001146FFF7F7FF00F0EFF802F0C1FD03B4BE
:1001C000FFF7F2FF03BC00F0F1FA000008B50020D1
:1001D00002F067FB00204FF4FC6387A20A21009025
:1001E000084602F001FC00204FF4FC6384A21E21AB
:1001F00000900A2002F0F8FB00204FF4FC6384A278
:10020000322100900A2002F0EFFB00204FF4FC6343
:1002100085A2462100900A2002F0E6FB00204FF460
:10022000FC6384A25A2100900A2002F0DDFB00202A
:100230004FF4FC6385A2782100900A2002F0D4FBE1
:1002400000204FF4784383A278210090322002F0FE
:10025000CBFB00204FF4FC6383A2962100900A2080
:1002600002F0C2FB00204FF4FC6382A2B421009094
:100270000A2002F0B9FB08BD70B588B0002002F07A
:10028000D3FC0546012D38D17E48007808B90120FD
:1002900000E000207B4908700846007848B1002043
:1002A0004FF478436BA278210090322002F09CFB3F
:1002B00008E000204FF4784373A2782100903220A8
:1002C00002F092FB00204FF4784374A29621009034
:1002D0005A2002F089FB00204FF4784375A2B42124
:1002E0000090722002F080FB664800780423082208
:1002F00007210090002002F0C1FB032D2FD1002424
:1003000007E006A80455005D303003A90855601CBD
:10031000C4B2082CF5DB00208DF814004FF47843AC
:1003200003AA962100905A2002F05EFB082106A83D
:1003300002F008FC06464EB100204FF4784363A259
:1003400096210090AA2002F04FFB08E000204FF415
:10035000784360A296210090AA2002F045FB01A8F4
:1003600002F024FC0546ADB1002406E001A8005DC2
:10037000303003A90855601CC4B2AC42F6DB002043
:100380008DF814004FF4784303AAB4210090722032
:1003900002F02AFB08B070BD08B5002400F09EF9F9
:1003A0004FF4A06000F0C2FA4FF4165000F00CFABF
:1003B00002F05DF902F0ACF802F018FC0120042311
:1003C000082207210090002002F058FBFFF7FEFEF4
:1003D00011E0FFF751FF601CC4B20F2C07D10024BD
:1003E0003E4800686FEA00003D49C1F880014FF0C7
:1003F0000A0000F0AFF9ECE75052454348494E007F
:100400007777772E7072656368696E2E636F6D0003
:1004100043414E205465737421204275616E643AE5
:100420003530304B62707300323031352D31312D23
:10043000370000004B5F55503A4D4F444520204B4C
:100440005F444F574E3A53656E6400004D6F6465CC
:100450003A00000043414E5F4D6F64655F4C6F6F23
:10046000704261636B00000053656E6420446174E8
:10047000613A000052656365697665204461746184
:100480003A0000000000002043414E5F4D6F64655C
:100490005F4E6F726D616C202020000020202020B4
:1004A000202020202020202020202020202020204C
:1004B000200000002020202020202020202020209C
:1004C0002020202020202020000000004661696CB0
:1004D0006564200053756363657373008001224275
:1004E00000002242704700BFFEE700BFFEE700BFEA
:1004F000FEE700BFFEE77047704770477047000097
:100500000CB50020019000906B48006840F48030EA
:100510006949086000BF6848006800F40030009036
:100520000198401C0190009818B90198B0F5A06F8F
:10053000F1D16148006810F4003F02D00120009022
:1005400001E0002000900098012842D15B4800683B
:1005500040F01000594908600846006820F0030088
:1005600008600846006840F0020008605248406891
:10057000514948600846406848600846406840F471
:10058000806048600846406820F47C104860084657
:10059000406840F4E81048600846006840F0807009
:1005A000086000BF4448006810F0007FFAD042485D
:1005B000406820F00300404948600846406840F029
:1005C0000200486000BF3C48406800F00C0008286A
:1005D000F9D10CBD10B5FFF793FF10BD10B536482B
:1005E000006840F00100344908600846406834491A
:1005F00008403149486008460068324908402E49A1
:1006000008600846006820F48020086008464068BA
:1006100020F4FE0048604FF41F008860FFF7DAFF07
:100620004FF000602849086010BD10B5002100207F
:100630000022214B5B6803F00C0121B1042906D094
:10064000082928D107E0214B214C236027E01F4BCC
:100650001F4C236023E0184B5B6803F47010164BAB
:100660005B6803F48032022303EB904022B9194BFC
:100670004343174C23600DE00F4B5B6813F4003FBE
:1006800004D0144B4343124C236003E00F4B43430D
:100690000F4C236003E00D4B0D4C236000BF00BFE7
:1006A000054B5B68C3F303130B4CE15C084B1B6801
:1006B000CB40074C236010BD0010024000200240D8
:1006C0000000FFF8FFFFF6FE08ED00E000127A00E0
:1006D0000400002000093D000800002010B56FF064
:1006E000040000F073F92D4800682D49B0FBF1F0CB
:1006F0002C4908700846007800EB4001C1EBC0109F
:100700004FF6FF7101EAC0002749088010BD01467D
:10071000244A12784A434FF0E0235A6100229A613A
:100720001A46126942F001021A6100BF4FF0E0223E
:10073000106910F0010F02D010F4803FF6D04FF096
:10074000E022126922F001024FF0E0231A61002238
:100750009A6170470146144A12884A434FF0E023D9
:100760005A6100229A611A46126942F001021A6126
:1007700000BF4FF0E022106910F0010F02D010F41A
:10078000803FF6D04FF0E022126922F001024FF0D4
:10079000E0231A6100229A617047000004000020E3
:1007A00000127A00180000201A000020014600BF45
:1007B000704700BF494A128812F0400FFAD0C2B207
:1007C000464B1B1D1A80704710B586B004460121A8
:1007D00044F2040000F02EFC4FF40070ADF8140059
:1007E00003208DF8160018208DF8170005A93C4845
:1007F00000F06AF94FF48060ADF8140004208DF821
:10080000170005A9364800F05FF925208DF8000093
:1008100003208DF801008DF8020001208DF80300FF
:10082000684600F088F801940020ADF80800ADF8A3
:100830000A00ADF80C00ADF810000C20ADF80E0069
:1008400001A9264800F0A1FC012240F225512348CD
:1008500000F033FD0121214800F023FD06B010BD5A
:1008600010B540F225511D4800F00CFE10B31B4896
:1008700000F088FDC4B21B48008810F4004F2BD153
:100880001848008810F4804F0CD00A2C03D00020A8
:100890001449088020E01348008840F400401149C2
:1008A000088019E00D2C06D10E48008840F48040E5
:1008B0000C49088010E00B480088C0F30D000A497D
:1008C0000C5408480088401C0649088008460088E7
:1008D000C72801DD0020088010BD0000003801405D
:1008E000000801401C0000203C000020094880470F
:1008F00009480047FEE7FEE7FEE7FEE7FEE7FEE702
:10090000FEE7FEE7FEE7FEE704480549054A064B19
:1009100070470000DD050008310100086801002073
:100920006807002068030020680300203149014364
:10093000314A1160704770B5002100230F22C4783E
:100940000CB32D4C246804F4E064C4F5E064210A7F
:10095000C1F10403CA40447804FA03F184781440D6
:1009600021430901254C0678A155047804F01F05A0
:100970000124AC4005786D114FF0E02606EB8505AB
:10098000C5F8004109E0047804F01F050124AC40DB
:100990001B4D0678761145F8264070BD194A0A406D
:1009A0000243154B1B1F1A60704739B1124A121DC2
:1009B00012680243104B1B1D1A6006E00E4A121DFE
:1009C000126882430C4B1B1D1A607047042808D123
:1009D0004FF0E021096941F004014FF0E02211617C
:1009E00007E04FF0E021096921F004014FF0E02217
:1009F000116170470000FA050CED00E000E400E032
:100A000080E100E080FFFF1F10B50446CA48844221
:100A100008D10121042000F027FB0021042000F070
:100A200023FB46E0C548844208D10121082000F09C
:100A30001BFB0021082000F017FB3AE0C04884426D
:100A400008D10121102000F00FFB0021102000F040
:100A50000BFB2EE0BB48844208D10121202000F08E
:100A600003FB0021202000F0FFFA22E0B648844278
:100A700008D10121402000F0F7FA0021402000F0C9
:100A8000F3FA16E0B148844208D10121802000F039
:100A9000EBFA0021802000F0E7FA0AE0AC4884423B
:100AA00007D10121801500F0DFFA0021A01500F028
:100AB000DBFA10BD10B50121084600F0D5FA00217F
:100AC000012000F0D1FA10BD2DE9F04102460025C9
:100AD0000026002000230024002791F803C00CF01A
:100AE0000F0591F803C01CF0100F03D091F802C05D
:100AF0004CEA050591F800C0BCF1000F31D0146834
:100B000000202BE04FF0010C0CFA00F3B1F800C00C
:100B10000CEA03069E4220D183004FF00F0C0CFA22
:100B200003F7BC4305FA03FC4CEA040491F803C044
:100B3000BCF1280F06D14FF0010C0CFA00FCC2F8F2
:100B400014C00AE091F803C0BCF1480F05D14FF082
:100B5000010C0CFA00FCC2F810C0401C0828D1D3CC
:100B60001460B1F800C0BCF1FF0F34DD5468002000
:100B70002EE000F1080C4FF0010808FA0CF3B1F870
:100B800000C00CEA03069E4221D183004FF00F0CF7
:100B90000CFA03F7BC4305FA03FC4CEA040491F891
:100BA00003C0BCF1280F05D100F1080C08FA0CF8BD
:100BB000C2F8148091F803C0BCF1480F07D100F1CE
:100BC000080C4FF0010808FA0CF8C2F81080401C1D
:100BD0000828CED35460BDE8F0814FF6FF71018044
:100BE000022181700421C170704702460020936881
:100BF0000B4201D0012000E00020704701468868C8
:100C000080B2704702460020D3680B4201D0012019
:100C100000E0002070470146C86880B2704701615B
:100C20007047416170470AB1016100E0416170475E
:100C3000C16070474FF480320A43826181618261F2
:100C400082698269704702460020424B18684FF65D
:100C50008073184040EA021008433E4B186070470A
:100C60003D49C8617047F0B50A46002300240021C1
:100C7000002500F00046B6F1004F02D1354EF16973
:100C800001E0344E7168C0F3034583B200F44016AE
:100C9000B6F5401F08D121F070612E4E766826F01F
:100CA00070662C4F7E6012E000F48016B6F5801F4F
:100CB00006D1032606FA05F4A14341F0706106E06F
:100CC000460D360103FA06F6B14341F0706122B1D8
:100CD000460D360103FA06F6314300F00046B6F140
:100CE000004F02D11B4EF16101E01A4E7160F0BD60
:100CF00030B500228B071C0F0F2303FA04F2154BAB
:100D000008338C1053F824309343124C08348D1060
:100D100044F8253023468C1053F824308C07240FD8
:100D200000FA04F423430B4C08348D1044F82530AA
:100D300030BD0A490860704700080140000C0140BE
:100D4000001001400014014000180140001C014047
:100D5000002001400000014000002042DC00204251
:100D6000DD48006840F00100DB4908600846406843
:100D7000DA490840D849486008460068D849084020
:100D8000D54908600846006820F4802008600846BD
:100D9000406820F4FE0048604FF41F0088607047F0
:100DA000CD49096821F48031CB4A116011460968A8
:100DB00021F480211160B0F5803F03D0B0F5802F81
:100DC0000ED106E0C449096841F48031C24A11607D
:100DD00007E0C149096841F4A021BF4A116000E061
:100DE00000BF00BF704710B501460022002300205D
:100DF0004A11012A02D1B84C236806E0022A02D126
:100E0000B54C236A01E0B44C636A01F01F0201246F
:100E100094401C4201D0012000E0002010BD38B5F4
:100E2000002000900024002500BF3120FFF7DBFFE9
:100E300005460098401C00900098B0F5A06F01D0C6
:100E4000002DF2D03120FFF7CEFF08B1012400E0E1
:100E50000024204638BD014600209F4A106820F03B
:100E6000F80040EAC100106070479E490860704772
:100E700002460020984B586820F47C1042EA010397
:100E80001843954B5860704796490866704701466D
:100E90000020914A506820F00300084350607047DA
:100EA0008D48406800F00C007047014600208A4AD7
:100EB000506820F0F0000843506070470146002061
:100EC000854A506820F4E06008435060704701464E
:100ED0000020814A506820F4605040EAC100506010
:100EE000704729B17C4A527A02437B4B5A7204E024
:100EF000794A527A8243784B5A7270477A4908602D
:100F0000704701460020744A506820F4404008436E
:100F1000506070470021754A11706F4A82F82010A6
:100F2000012802D0042808D103E001216F4A117082
:100F300004E005216D4A117000E000BF00BF70475A
:100F40006B49086070476449096A0143624A11624B
:100F50007047674944390860704730B50021002266
:100F6000002400235C4D6D6805F00C0121B10429BB
:100F700005D0082923D105E05E4D056022E05D4DD6
:100F800005601FE0544D6D6805F47012524D6D6898
:100F900005F48034022505EB92421CB9564D5543A9
:100FA00005600BE04C4D6D6815F4003F03D0524DC9
:100FB0005543056002E04F4D5543056002E04D4D3D
:100FC000056000BF00BF444D6D6805F0F0010909E0
:100FD0004A4D6B5C0568DD4045603F4D6D6805F42A
:100FE000E061090A454D6B5C4568DD4085603A4D1E
:100FF0006D6805F46051C90A404D6B5C4568DD4081
:10100000C560354D6D6805F44041890B3C4D6B5C06
:10101000C568B5FBF3F5056130BD29B12E4A5269AB
:1010200002432D4B5A6104E02B4A526982432A4BFA
:101030005A61704729B1284A92690243264B9A6146
:1010400004E0254A92698243234B9A61704729B193
:10105000214AD2690243204BDA6104E01E4AD26978
:1010600082431D4BDA61704729B11B4AD2680243A3
:10107000194BDA6004E0184AD2688243164BDA60F2
:10108000704729B1144A12690243134B1A6104E0F4
:10109000114A12698243104B1A6170471449403952
:1010A000086070470F49C86470470B49C8717047A2
:1010B0000948406A40F0807007494862704701461D
:1010C0000020054A92680A4201D0012000E0002079
:1010D0007047014988727047001002400000FFF815
:1010E000FFFFF6FE00004242D800424220100240BC
:1010F0008004424200127A0000093D0024000020D2
:101100003400002010B50446FB48844209D1012177
:101110008803FFF7A9FF00214FF48040FFF7A4FFE9
:1011200032E0F648844209D101214804FFF7A9FFC3
:1011300000214FF40030FFF7A4FF25E0F04884427F
:1011400009D101218804FFF79CFF00214FF4802082
:10115000FFF797FF18E0EB48844209D10121C8044A
:10116000FFF78FFF00214FF40020FFF78AFF0BE00D
:10117000E548844208D101210805FFF782FF0021DC
:101180004FF48010FFF77DFF10BD2DE9F04786B0CA
:1011900005460E460024A24600BFA1460027B0899E
:1011A00000B100BF2F462C8A4CF6FF700440F08837
:1011B00004432C82AC894EF6F3100440B088318988
:1011C0000843718908430443AC81AC8A4FF6FF4061
:1011D0000440B0890443AC8201A8FFF7BEFEC648B4
:1011E000874202D1DDF810A001E0DDF80CA0A8894B
:1011F00010F4004F08D00AEBCA0000EB0A10316867
:101200004900B0FBF1F807E00AEBCA0000EB0A1056
:1012100031688900B0FBF1F86420B8FBF0F00401FC
:101220002009642101FB1089A88910F4004F08D01F
:10123000322000EBC900B0FBF1F000F007000443DE
:1012400008E0322000EB09106421B0FBF1F000F05F
:101250000F0004432C8106B0BDE8F0874FF416510F
:10126000016000218180C18001810C214181002128
:101270008181704710B502460020108A4FF2FF03AB
:1012800018400B884C8823438C882343CC88234305
:101290001843108210BD0021018041808180C180EF
:1012A000704721B1828942F40052828104E0828930
:1012B0004DF6FF731A4082817047F0B50346002453
:1012C000002600250020A1F510676A3F00D100BF6D
:1012D0001846C1F3421401F01F06012707FA06F56C
:1012E000012C01D10C3004E0022C01D1103000E0BF
:1012F00014301AB107682F43076002E00768AF4354
:101300000760F0BD1AB1838A0B43838202E0838AAF
:101310008B4383827047028A4FF6F0731A40028231
:10132000028A0A430282704782894FF2FF731A4091
:10133000828182890A438281704721B1828942F089
:101340000202828104E082894FF6FD731A40828195
:101350007047028A4FF6DF731A400282028A0A43FC
:101360000282704721B1028A42F48042028204E084
:10137000028A4BF6FF731A4002827047C1F30802DB
:101380008280704701468888C0F3080070478189D1
:1013900041F0010181817047028BD2B20283028B3E
:1013A00042EA012202837047028B02F47F420283E9
:1013B000028B0A430283704721B1828A42F02002E5
:1013C000828204E0828A4FF6DF731A40828270477D
:1013D00021B1828A42F01002828204E0828A4FF6B2
:1013E000EF731A408282704721B1828A42F008026C
:1013F000828204E0828A4FF6F7731A408282704735
:1014000021B1828942F40042828103E08289C2F3E1
:101410000E028281704721B1828A42F40062828288
:1014200004E0828A4FF2FF731A4082827047828AF8
:101430004FF6FB731A408282828A0A438282704787
:1014400021B1828A42F00202828204E0828A4FF64F
:10145000FD731A408282704702460020B1F5007F7A
:1014600000D100BF13880B4201D0012000E0002012
:10147000704701F40072B2F5007F00D100BFCA438B
:101480000280704770B5024600240023002500202A
:10149000A1F510666A3E00D100BFC1F3421501F00C
:1014A0001F03012606FA03F3012D02D1968933406A
:1014B00006E0022D02D1168A334001E0968A3340BD
:1014C0000C12012606FA04F41688344013B10CB14C
:1014D000012000E0002070BD10B500220023A1F51E
:1014E00010646A3C00D100BF0A1201249440A3B2E8
:1014F000DC43048010BD000000380140004400407F
:1015000000480040004C00400050004030B943F219
:10151000DB014FF0204242F8201005E043F2D201F7
:101520004FF0204242F820106FF07042411C4FF003
:10153000204343F8212011461A4602EB8002C2F8EC
:101540000411704710280AD118214FF0204211666B
:10155000402151664FF0FC319166D16610E01821B0
:10156000F84A11604FF040014FF02042C2F8841059
:101570004FF0FC31F44A11604FF02042C2F88C1059
:1015800070471820F14908604FF000004FF02041EB
:10159000C1F8A4004FF0FC30ED49086001F10401EE
:1015A000086001F1040108607047D0E9011211439D
:1015B000C2681143026911434269114382691143B0
:1015C000C2691143026A1143426A1143826A11439C
:1015D000C26A1143026B11434FF02043026843F883
:1015E00022108168082908D11A46016852F8211092
:1015F00041F04001026843F82210416B0968426BD8
:10160000526841EA0211426B926841EA0221426B40
:10161000928941EA0241426B128A41EA0251426BCD
:10162000127D41EA0261426B926911430268521CC9
:101630004FF0204343F82210C16AB1F5804F1AD110
:10164000816B0968826B526841EA0211826B926871
:1016500041EA0221826B128A41EA0251826B127DB9
:1016600041EA0261826B92691143026803EB8202D4
:10167000C2F8041108E06FF070414FF02043026897
:1016800003EB8202C2F80411704730B5002100223A
:101690000023446844F0080485682C43C5682C4343
:1016A00005692C43456944EA4524856944EA453186
:1016B000C4692468C5696D6844EA0524C5692D8933
:1016C00044EA0544C5692D7B44EA0562046A24683E
:1016D000056A6D6844EA0524056A2D8944EA0544D3
:1016E000056A2D7B44EA05630468102C05D14FF090
:1016F00020442166A266E36607E0924C21604FF029
:101700002044C4F88820934C236030BD016841F028
:101710001001426841EA4221826841EA42318B4A23
:101720001160C1680968C268526841EA0221C26852
:10173000128941EA0241C268127B41EA0261844A8D
:101740001160016909680269526841EA022102696F
:10175000128941EA02410269127B41EA02617E4A32
:101760001160416909684269526841EA022142698F
:10177000128941EA02414269127B41EA02614FF05B
:101780002042C2F8B0107047002101600221416080
:1017900000218160C160016141618161C1610162BB
:1017A0004FF480514162490081620021C1620163AE
:1017B0000F21426B1160426B5160FF21426B9160BF
:1017C0000F21426BD160426B1161426B516100216C
:1017D000426B91610F21826B1160826B5160FF211E
:1017E000826B91600F21826BD160826B1161826B81
:1017F00051610021826B91617047102101600021CD
:1018000041608160C160016141618161FC21C26907
:101810001160C2695160C2699160C269D160026A97
:101820001160026A5160026A9160026AD160704779
:101830000021016041608160FC21C2681160C268C2
:101840005160C2689160C268D1600269116002692A
:101850005160026991600269D16042691160426918
:101860005160426991604269D160704751B14FF057
:10187000204252F8202042F001024FF0204343F86A
:10188000202009E04FF0204252F82020334B1A402C
:101890004FF0204343F82020704799B1102808D119
:1018A0004FF02042126E42F004024FF020431A66BD
:1018B0001DE0244A126842F004024FF02043C3F8AE
:1018C000802014E0102809D14FF02042126E234BE3
:1018D000DB1E1A404FF020431A6608E0194A1268CE
:1018E0001F4B02EA03024FF02043C3F880207047E9
:1018F00040B11649096841F004014FF02042C2F896
:10190000A01008E011490968154A01EA02014FF0E8
:101910002042C2F8A010704799B1102808D14FF0AA
:101920002042126E42F040024FF020431A662DE032
:10193000044A126842F040024FF02043C3F880206E
:1019400024E00FE0800000A0880000A0A00000A01C
:10195000A80000A08C0000A0AC0000A0FEFF0F00BB
:10196000FBFF0F00102808D14FF02042126E684B89
:101970001A404FF020431A6608E0664A1268644B2A
:1019800002EA03024FF02043C3F88020704701466B
:101990000020102903D14FF02042506F01E05E4A31
:1019A0001068704710B5F2B1102807D14FF02043EE
:1019B0005B6E0B434FF02044636632E0B0F5807FEE
:1019C00008D1564B1B6843EA01034FF02044C4F88A
:1019D000843026E0524B1B6843EA01034FF0204459
:1019E000C4F8A4301DE0102807D14FF020435B6EEF
:1019F0008B434FF02044636613E0B0F5807F08D13D
:101A0000464B1B6823EA01034FF02044C4F884309E
:101A100007E0434B1B6823EA01034FF02044C4F85E
:101A2000A43010BD10B5024600200023102A03D1B7
:101A30004FF02044636E07E0B2F5807F02D1374C4F
:101A4000236801E0364C23680B4201D0012000E0FE
:101A5000002010BD102807D14FF02042526E8A435B
:101A60004FF020435A6613E0B0F5807F08D12B4A2F
:101A7000126822EA01024FF02043C3F8842007E0F5
:101A8000274A126822EA01024FF02043C3F8A4203B
:101A9000704770B502460020002300240025102A5C
:101AA00003D14FF02046736E07E0B2F5807F02D17C
:101AB0001A4E336801E01A4E336803EA010403EA60
:101AC000D10514B10DB1012000E0002070BD102837
:101AD00008D14FF02042526E22EAD1024FF020434B
:101AE0005A6613E0B0F5807F08D10C4A126822EAEA
:101AF000D1024FF02043C3F8842007E0084A12685F
:101B000022EAD1024FF02043C3F8A420704700001E
:101B1000BFFF0F00800000A0940000A0840000A080
:101B2000A40000A010B50446FE48844209D101215A
:101B30004806FFF7A6FA00214FF00070FFF7A1FA60
:101B400008E001218806FFF79CFA00214FF0806031
:101B5000FFF797FA10BD30B5024600200023146845
:101B600024F002041460146844F00104146000E0DE
:101B70005B1C546814F0010F03D1A3F57F44FF3CB4
:101B8000F6D1546814F0010F01D100206CE08C797B
:101B9000012C04D1146844F08004146003E014683C
:101BA00024F080041460CC79012C04D1146844F032
:101BB0004004146003E0146824F0400414600C7ABC
:101BC000012C04D1146844F02004146003E014686C
:101BD00024F0200414604C7A012C04D1146844F0E1
:101BE0001004146003E0146824F0100414608C7A6C
:101BF000012C04D1146844F00804146003E0146854
:101C000024F008041460CC7A012C04D1146844F048
:101C10000404146003E0146824F0040414608C7855
:101C2000A407CD7844EA05640D7944EA05444D796A
:101C300044EA05540D886D1E2C43D461146824F0C9
:101C400001041460002300E05B1C546814F0010FD1
:101C500003D0A3F57F44FF3CF6D1546814F0010F84
:101C600001D0002000E0012030BD10B50021837AB2
:101C7000012202FA03F1AC4A126842F00102AA4BB7
:101C80001A60A94A1C3212688A43A74B1C331A6097
:101C9000027BCAB9A44A0C3212688A43A24B0C33A5
:101CA0001A604288C38842EA03439F4A4032847ADA
:101CB00042F834300288838842EA03439A4A403229
:101CC000847A02EBC4025360027B012A19D1964A3E
:101CD0000C3212680A43944B0C331A604288038812
:101CE00042EA0343904A4032847A42F83430C28850
:101CF000838842EA03438C4A4032847A02EBC4026E
:101D00005360C27A3AB9884A121D12688A43864BD8
:101D10001B1D1A6006E0844A121D12680A43824B9A
:101D20001B1D1A60028932B97F4A143212688A4335
:101D30007D4B14331A600289012A06D17A4A143283
:101D400012680A43784B14331A60427B012A06D189
:101D5000754A1C3212680A43734B1C331A60724A6C
:101D6000126822F00102704B1A6010BD00218171CF
:101D7000C171017241728172C1728170C17003219F
:101D80000171022141710121018070476649096892
:101D900041F00101644A11601146096843F60E7270
:101DA0009143614A11601146096841EA00211160BE
:101DB0001146096821F001011160704721B10268E4
:101DC00042F48032026003E0026822F48032026052
:101DD0007047E1B1026842F0800202604FF4C272C3
:101DE000125842F480734FF4C27213504FF4CA7207
:101DF000125842F480734FF4CA7213504FF4D272E7
:101E0000125842F480734FF4D27213501BE00268F0
:101E100022F0800202604FF4C272125822F48073E2
:101E20004FF4C27213504FF4CA72125822F48073E6
:101E30004FF4CA7213504FF4D272125822F48073C6
:101E40004FF4D2721350704710B5024600209368C9
:101E500003F08063B3F1806F00D110E0936803F06A
:101E60000063B3F1006F01D1012008E0936803F033
:101E70008053B3F1805F01D1022000E004200428E8
:101E800079D002F5C07303EB00131B6803F0010463
:101E900002F5C07303EB00131C600B7A7BB94B7A1D
:101EA0000C8843EA445302F5C07404EB0014246820
:101EB000234302F5C07404EB0014236010E00B7A96
:101EC0004C6843EAC4034C7A234302F5C07404EB24
:101ED00000142468234302F5C07404EB001423604B
:101EE0008B7A03F00F038B7202F5C07303EB0013C0
:101EF0005B6823F00F0402F5C07303EB00135C6012
:101F000002F5C07303EB00135B688C7A234302F580
:101F1000C07404EB001463608B7B1C064B7B44EAAB
:101F2000034403E000640040006600400B7B44EA89
:101F30000323CC7A234302F5C07404EB0014A3609E
:101F40008B7C1C064B7C44EA03440B7C44EA032351
:101F5000CC7B234302F5C07404EB0014E36002F56C
:101F6000C07303EB00131B6843F0010402F5C07358
:101F700003EB00131C6010BD10B50246002321B115
:101F8000012907D002290FD109E09068F84C00EA36
:101F900004030BE09068F74C00EA040306E0906845
:101FA000F54C00EA040301E0002300BF00BFF34C3E
:101FB000181BA34216D007DC83B16FF0806018189D
:101FC0000ED0022818D111E0B0F5007F10D0EC4CF3
:101FD000001909D0B0F5003F0ED10BE002230DE04F
:101FE00000230BE0002309E0002307E0012305E0C4
:101FF000012303E0012301E0002300BF00BFD8B2AA
:1020000010BD21B1012907D002290FD109E0826852
:1020100042F0800282600AE0826842F400428260FC
:1020200005E0826842F40002826000E000BF00BF69
:10203000704710B500F5D87303EB01131B6803F06C
:1020400004031372137A53B900F5D87303EB011329
:102050001B6840F2FF7404EA5353136009E000F573
:10206000D87303EB01131B686FF0604404EAD303D9
:10207000536000F5D87303EB01131B6803F00203F0
:10208000537200F5D87303EB01135B6803F00F0381
:10209000937200F5D87303EB01135B681B0AD374CA
:1020A00000F5D87303EB01139B68D37200F5D87366
:1020B00003EB01139B681C0A147300F5D87303EB40
:1020C00001139B681C0C547300F5D87303EB0113C8
:1020D0009B681B0E937300F5D87303EB0113DB6849
:1020E000D37300F5D87303EB0113DB681C0A147477
:1020F00000F5D87303EB0113DB681C0C547400F576
:10210000D87303EB0113DB681B0E937421B9C3680A
:1021100043F02003C36003E0036943F0200303613D
:1021200010BD21B9C26842F02002C26003E002691A
:1021300042F02002026170470246002019B9D368BC
:1021400003F0030006E0012903D1136903F0030043
:1021500000E00020704710B502460B4600204FF605
:10216000FF71BBB9146824F0020444F00104146048
:1021700000E0491E546804F00304012C01D000293A
:10218000F7D1546804F00304012C01D0002032E0A0
:10219000012030E0012B13D1146824F003041460F3
:1021A00000E0491E546814F0030F01D00029F8D153
:1021B000546814F0030F01D000201CE001201AE045
:1021C000022B17D1146824F0010444F002041460B7
:1021D00000E0491E546804F00304022C01D00029D9
:1021E000F7D1546804F00304022C01D0002002E06F
:1021F000012000E0002010BD014600200A6822F006
:10220000010242F002020A604A6802F00302022A56
:1022100000D10120704701464FF6FF7200200B6885
:1022200023F002030B6000E0521E4B6803F0020330
:10223000022B01D1002AF7D14B6803F00203022BD5
:1022400000D001207047014600208A6902F070002A
:102250007047014600208A69100E70470146002031
:102260008A69C2F3074070471AB143690B4343615F
:1022700002E043698B434361704710B5024600207A
:1022800011F4700F08D09369C1F31304234201D0F5
:1022900001202DE000202BE011F0807F08D0536852
:1022A000C1F31304234201D0012021E000201FE0EC
:1022B00011F0006F08D09368C1F31304234201D0DA
:1022C000012015E0002013E011F0007F08D0D36852
:1022D000C1F31304234201D0012009E0002007E0EC
:1022E0001369C1F31304234201D0012000E0002050
:1022F00010BD0022234B994202D10023836111E0DB
:10230000C1F3130211F0007F01D0C2600AE011F0A6
:10231000806F01D0026105E011F0006F01D0826092
:1023200000E042607047024600200A4201D00120CE
:1023300000E00020704770B504460D460026606935
:10234000284272D0B5F5807F69D01DDC082D42D0BF
:1023500006DC012D2DD0022D31D0042D7FD134E0AB
:10236000102D3ED0202D42D0402D78D145E00000E8
:10237000030000040003000800000310000100082F
:102380000001FFF77000F030B5F5004F61D009DCB7
:10239000B5F5007F4AD0B5F5806F4DD0B5F5006F2B
:1023A0005DD150E0B5F5803F2DD0B5F5003F56D159
:1023B0002FE0A0685549FFF7B6FF064651E0E068F8
:1023C0000321FFF7B0FF06464BE0E0680821FFF766
:1023D000AAFF064645E0E0681021FFF7A4FF064685
:1023E0003FE020690321FFF79EFF064639E02069A0
:1023F0000821FFF798FF064633E020691021FFF718
:1024000092FF06462DE060680821FFF78CFF064624
:1024100027E060681021FFF786FF064621E0A069EB
:102420000121FFF780FF06461BE01BE0A0690221A7
:10243000FFF779FF064614E0A0690421FFF773FF58
:1024400006460EE00BE0A0697021FFF76CFF064620
:1024500007E060680421FFF766FF064601E00026FA
:1024600000BF00E00026304670BDB1F5007F3AD0D5
:102470000FDC202928D006DC01291CD004291DD01E
:10248000082940D11DE0402921D0B1F5807F3AD103
:1024900026E0B1F5004F31D006DCB1F5806F25D0D4
:1024A000B1F5006F2FD124E0B1F5803F12D0B1F526
:1024B000003F28D111E0154A826025E00822C26061
:1024C00022E01022C2601FE0082202611CE01022FC
:1024D000026119E00822426016E01022426013E017
:1024E0000422426010E0042242600DE004224260B7
:1024F0000AE0002282610422426005E0002282613B
:102500000422426000E000BF00BF704701010100EB
:1025100008B501211020FEF78DFD4FF6FF70ADF8D4
:10252000000010208DF8030003208DF8020069469A
:102530001E48FEF7C9FA4FF6FF711C48FEF76FFB05
:1025400008BD70B504460D46BCB91948027800783C
:10255000401C174B187001209040C04381B21348B3
:10256000FEF766FB2846FEF7F5F8114800780828C4
:102570001AD100200E49087016E00D480278007844
:10258000401C0B4B187080201041C04381B207489B
:10259000FEF74EFB2846FEF7DDF8054800780828D0
:1025A00002D100200249087070BD000000100140F7
:1025B0003800002008B501214FF4B070FEF73AFD55
:1025C00003208DF8020041F20100ADF80000182050
:1025D0008DF803006946C048FEF776FA4FF633706F
:1025E000ADF800006946BD48FEF76EFA4FF6807000
:1025F000ADF800006946BA48FEF766FA08BD00B5B6
:1026000097B0022001900020029005200390002046
:10261000069004900120059000070790062008907E
:1026200000200A9010200B9000021190800013905F
:102630000020099001A81590169001210802FEF7CC
:10264000ECFC08A8FEF7B1FF01210620FFF70EF908
:1026500017B000BD0112A34A1180C1B211807047AA
:102660000112A04A921C1180C1B21180704710B5AE
:10267000FFF7A0FFFFF7C3FF4FF4FA7401E0601EFD
:1026800084B2002CFBDC0120FFF7E4FF4FF48070E4
:10269000FFF7E6FF0320FFF7DDFF41F23000FFF711
:1026A000DFFF0820FFF7D6FF40F60800FFF7D8FF4E
:1026B0009020FFF7CFFF4FF40040FFF7D1FF4FF41A
:1026C0008060FFF7C7FF4FF4C440FFF7C9FF40F237
:1026D0000140FFF7BFFF0120FFF7C2FFFF20FFF718
:1026E000B9FF0120FFF7BCFF4FF48170FFF7B2FF85
:1026F0004FF4D870FFF7B4FF4FF4E260FFF7AAFF82
:102700001620FFF7ADFF40F21270FFF7A3FF0F2076
:10271000FFF7A6FF40F25270FFF79CFF2F20FFF754
:102720009FFF40F22470FFF795FF1A20FFF798FFF4
:1027300040F25470FFF78EFF1820FFF791FF4FF41F
:10274000FA7401E0601E84B2002CFBDC4FF4607070
:10275000FFF780FF0020FFF783FF40F28130FFF793
:1027600079FF45F61070FFF77BFF40F28230FFF7EC
:1027700071FF40F60230FFF773FF40F28330FFF73E
:1027800069FF40F21460FFF76BFF4FF46170FFF7D1
:1027900061FF40F21110FFF763FF40F28530FFF751
:1027A00059FF0020FFF75CFF40F28630FFF752FF31
:1027B0004AF60B10FFF754FF40F28730FFF74AFF4D
:1027C00040F20660FFF74CFF4FF46270FFF742FFE4
:1027D00040F21260FFF744FF40F28930FFF73AFF02
:1027E00040F21110FFF73CFF40F20270FFF732FF9A
:1027F0003B20FFF735FFFF20FFF72CFF0020FFF7FE
:102800002FFF0720FFF726FF4FF48070FFF728FF08
:102810004FF4FA7401E0601E84B2002CFBDC4FF42C
:102820000070FFF717FF0020FFF71AFF40F20120AA
:10283000FFF710FF0020FFF713FF10BD70B506462D
:102840000C4615464FF40470FFF704FF3046FFF7BF
:1028500007FF40F21120FFF7FDFE2846FFF700FFBB
:1028600040F21220FFF7F6FE2046FFF7F9FE40F295
:102870001320FFF7EFFE1846FFF7F2FE4FF400704B
:10288000FFF7E8FE3046FFF7EBFE40F20120FFF7CE
:10289000E1FE2046FFF7E4FE40F20220FFF7DAFEF9
:1028A00070BD70B5064640F28F13EF220021084636
:1028B000FFF7C4FF00240BE0002504E03046FFF7DB
:1028C000CFFE681C85B2B5F5C87FF7DB601C84B20B
:1028D000F02CF1DB70BD000000200140001401402D
:1028E00000180140FE07006C70B504460D46164600
:1028F0002B46224629462046FFF7A0FF3046FFF729
:10290000AFFE70BD2DE9F04704460D4616461F4642
:10291000DDF82080B44201DCBD4201DDBDE8F08776
:102920003B46324629462046FFF788FF301B401CB5
:1029300084B2781B401C85B20BE0A94602E04046F9
:10294000FFF78EFE5FEA0900A9F101011FFA81F984
:10295000F5D12000A4F101018CB2EED100BFDDE77A
:102960002DE9F04104460D46174605F1010C1FFA0A
:102970008CF304F1010C1FFA8CF2A5F1010C1FFA83
:102980008CF1A4F1010C1FFA8CF0FFF757FF002621
:1029900004E03846FFF764FE701CC6B2092EF8DB6F
:1029A000211D8AB2211F88B22B462946FFF746FF18
:1029B000002604E03846FFF753FE701CC6B2092E0D
:1029C000F8DB281D83B2281F81B222462046FFF77C
:1029D00035FF002604E03846FFF742FE701CC6B201
:1029E000092EF8DBBDE8F0812DE9F05F04460E46C4
:1029F000154698463AE02878203800F0FF0A06F19C
:102A00000F0083B2E01D82B231462046FFF716FF69
:102A100000271FE0184800EB0A1010F807B04FF02D
:102A2000000912E00BF08000802803D14046FFF738
:102A300017FE02E00A98FFF713FE4FF6FF7000EA58
:102A40004B0B09F1010000F0FF09B9F1080FE9DBB8
:102A5000781CC7B2102FDDDB6D1C04F1080084B2B6
:102A6000E92C03DD002406F1100086B22878002846
:102A7000C1D1BDE8F09F0000542D00082DE9F041C0
:102A800088B004460D4616461F46DDF83880012101
:102A90004806FEF7DCFA01210420FEF7CBFA4FF4DA
:102AA0000060ADF81C0048208DF81F0007A94D48B4
:102AB000FEF70AF84FF48050ADF81C0018208DF88E
:102AC0001F0003208DF81E0007A94648FDF7FCFFF4
:102AD000ADF810708DF812808DF813408DF81460E9
:102AE0008DF8155000208DF816008DF817008DF820
:102AF000180001208DF8190000208DF81A008DF8BB
:102B00001B0004A93848FFF726F800208DF80A00BA
:102B10008DF80B0001208DF80C000020ADF80000AE
:102B2000ADF80200ADF80400ADF80600ADF80800FD
:102B300001208DF80D006846FFF797F8002008B0D7
:102B4000BDE8F081F0B585B007460D46002412209F
:102B50000090019000208DF808008DF809008DF894
:102B60000A5000BF05E0395D0DF10B000155601CF6
:102B700084B2AC42F7DB69461B48FFF765F90646AD
:102B8000002401E0601C84B231461748FFF7F4F9D5
:102B900018B940F6FF708442F4DB40F6FF708442BF
:102BA00002DB012005B0F0BD0020FBE730B585B0A9
:102BB000054600210C48FFF7BFFA10B9002005B008
:102BC00030BD6A4600210848FFF733FA002404E0CC
:102BD0000DF10B00005D2855641C082CF8D39DF8FE
:102BE0000A00ECE7000801400064004008B501213C
:102BF0004420FEF71FFA0120ADF8000028208DF8D0
:102C0000030069463648FDF75FFF01213448FEF7AF
:102C100008F81C20ADF8000048208DF80300694634
:102C20003048FDF751FF08BD10B5044614B101202E
:102C30002D4908702C480078002836D001212848FA
:102C4000FDF7D3FF01280ED004212648FDF7CDFF64
:102C500048B108212348FDF7C8FF20B110212148C1
:102C6000FDF7C3FF08BB0A20FDF774FD00201E49D5
:102C7000087001211A48FDF7B8FF012800D110BDE6
:102C800004211848FDF7B1FF08B90220F7E7082131
:102C90001448FDF7AAFF08B90320F0E710211148F6
:102CA000FDF7A3FFD0B90420E9E701210C48FDF7A7
:102CB0009CFF98B904210B48FDF797FF01280DD11F
:102CC00008210848FDF791FF012807D11021054888
:102CD000FDF78BFF012801D1034908700020CEE7E2
:102CE000000801400018014039000020704770477B
:102CF000704770477047754600F028F8AE460500EB
:102D00006946534620F00700854618B020B5FDF708
:102D1000FBFDBDE820404FF000064FF000074FF0EC
:102D200000084FF0000B21F00701AC46ACE8C009E9
:102D3000ACE8C009ACE8C009ACE8C0098D467047F2
:102D40000446AFF300802046FDF739FA004870478B
:102D5000040100200000000000000000000000004E
:102D600000000000000000101010101010100000F3
:102D7000181800000012362448000000000000006F
:102D800000000000000000242424FE484848FE48BB
:102D9000484800000000103854545030181414549F
:102DA0005438101000000044A4A8A8A8541A2A2AD5
:102DB0002A44000000000030484848506EA494881F
:102DC0008976000000606020C00000000000000064
:102DD0000000000000020408081010101010100875
:102DE0000804020000402010100808080808081015
:102DF00010204000000000001010D63838D6101007
:102E0000000000000000000010101010FE10101054
:102E100010000000000000000000000000000000A2
:102E2000606020C000000000000000007F00000083
:102E30000000000000000000000000000000000092
:102E40006060000000000102020404080810102065
:102E500020404000000000182442424242424242C8
:102E60002418000000000010701010101010101036
:102E7000107C00000000003C424242040408102084
:102E8000427E00000000003C42420418040202425C
:102E900044380000000000040C14242444447E0440
:102EA000041E00000000007E4040405864020242C0
:102EB000443800000000001C244040586442424254
:102EC000241800000000007E444408081010101070
:102ED000101000000000003C4242422418244242EC
:102EE000423C00000000001824424242261A02021E
:102EF0002438000000000000000018180000000046
:102F00001818000000000000000000100000000081
:102F100000101020000000020408102040201008BB
:102F200004020000000000000000FE000000FE009F
:102F300000000000000000402010080402040810F7
:102F4000204000000000003C4242620204080800E9
:102F50001818000000000038445AAAAAAAAAB442CD
:102F6000443800000000001010182828243C444277
:102F700042E70000000000F84444447844424242E2
:102F800044F800000000003E424280808080804281
:102F900044380000000000F84442424242424242AB
:102FA00044F80000000000FC42484878484840428D
:102FB00042FC0000000000FC42484878484840407D
:102FC00040E000000000003C44448080808E844447
:102FD00044380000000000E7424242427E42424242
:102FE00042E700000000007C1010101010101010BC
:102FF000107C00000000003E0808080808080808C7
:10300000080888F0000000EE4448507050484844DA
:1030100044EE0000000000E040404040404040409E
:1030200042FE0000000000EE6C6C6C6C5454545472
:1030300054D60000000000C7626252524A4A4A4613
:1030400046E200000000003844828282828282824E
:1030500044380000000000FC424242427C404040B4
:1030600040E0000000000038448282828282B2CABE
:103070004C380600000000FC4242427C4848444470
:1030800042E300000000003E424240201804024299
:10309000427C0000000000FE921010101010101072
:1030A00010380000000000E74242424242424242E1
:1030B000423C0000000000E7424244242428281833
:1030C00010100000000000D692929292AAAA6C44BE
:1030D00044440000000000E7422424181818242467
:1030E00042E70000000000EE4444282810101010B1
:1030F000103800000000007E8404080810202042E0
:1031000042FC0000001E10101010101010101010C3
:1031100010101E000000404020201010100808046D
:1031200004040202007808080808080808080808CB
:1031300008087800001C22000000000000000000C9
:10314000000000000000000000000000000000007F
:10315000000000FF00000000000000000000000070
:10316000606020C0000000000000003C421E2242BF
:10317000423F0000000000C04040405864424242CC
:1031800064580000000000000000001C2240404085
:10319000221C0000000000060202021E22424242DF
:1031A000261B0000000000000000003C427E404062
:1031B000423C00000000000F1110107E1010101093
:1031C000107C0000000000000000003E4444384035
:1031D0003C42423C000000C04040405C62424242EF
:1031E00042E70000000000303000007010101010A6
:1031F000107C00000000000C0C00001C04040404FF
:1032000004044478000000C04040404E48506848E4
:1032100044EE00000000007010101010101010108C
:10322000107C000000000000000000FE49494949F0
:1032300049ED000000000000000000DC6242424254
:1032400042E70000000000000000003C4242424211
:10325000423C000000000000000000D864424242EE
:10326000447840E0000000000000001E224242427C
:10327000221E020700000000000000EE3220202085
:1032800020F80000000000000000003E42403C0228
:10329000427C0000000000000010107C1010101094
:1032A000100C000000000000000000C64242424234
:1032B000463B000000000000000000E742242428F4
:1032C0001010000000000000000000D79292AAAA8F
:1032D00044440000000000000000006E241818188C
:1032E0002476000000000000000000E742242428AB
:1032F000181010E0000000000000007E44081010CC
:10330000227E00000000000000000000000000001D
:1033100000000000000000000000000000000000AD
:10332000000000000000000000000000000000009D
:10333000000000000000000000000000000000008D
:10334000000000000000000000000000000000007D
:103350000000000074330008000000203C00000062
:103360006C010008B03300083C0000202C0700006E
:10337000880100080100000000A24A0400000000CB
:103380000000000001020304060708090000000015
:103390000000000000000000000000000102030423
:1033A00001020304060708090204060800010000E0
:0400000508000131BD
:00000001FF
