:0C05C800021100000110000313000000ED
:10014300E4F508F509F50A1205F81205731205A876
:10015300AD137F0512022C1205ECAD147F061202BB
:100163002C1205ECAD157F0712022C1205ECE510DD
:1001730075F06484F513E51075F06484AFF0EF75E2
:10018300F00A84F514EF75F00A8485F0151203C99B
:100193008F08E508B401090510E510B4FFB2800526
:1001A300E508B40205E4F51080A6E508B40309AD3B
:1001B30010E4FF1204338098E50864047092FF1280
:0601C30004038F10808A86
:03001B0002045C80
:10045C00C0E0C0D00512E51270020511C394E8E5A6
:10046C001194034008751100751200B2A0758DFC33
:08047C00758B18D0D0D0E032DE
:0B05E100EF1FAC0670011E4C70F622EC
:0405F80075A0FF22C9
:0405FC00E4F5A02260
:0406000075A0FF22C0
:1004AB00E4F520F520AF207401A807088002C333C0
:1004BB00D8FCF4F5A07F507EC31205E10520E520A2
:0504CB00C3940840E0AD
:0104D0002209
:1003C90030B10930B00630B20320B32B7FE87E0389
:1003D9001205E120B10630B1FD7F012220B00630BF
:1003E900B0FD7F022220B20630B2FD7F032220B386
:0A03F9000830B3FD7F04227F0022CC
:100598003F065B4F666D7D077F6F777C395E7971AB
:0705EC007F647E000205E1BF
:10022C00EFB40800504D900239F82828730202519F
:10023C0002025502025902025D02026102026902C7
:10024C000271020279D2A4800ED2A48012D2A480B0
:10025C0016D2A4801AC2A4D2A3D2A28016C2A4D24F
:10026C00A3C2A2800EC2A4C2A3D2A28006C2A4C200
:0B027C00A3C2A2ED90059893F580222C
:06001E008B168A178918F9
:10002400E4F519ED14F51AF519E519C3940840031C
:100034000200B6E519B40800504D900045F8282890
:100044007302005D02006102006502006902006D36
:1000540002007502007D020085D2A4800ED2A48025
:1000640012D2A48016D2A4801AC2A4D2A3D2A2808F
:1000740016C2A4D2A3C2A2800EC2A4C2A3D2A280DA
:1000840006C2A4C2A3C2A2C3E519951AFFE4940050
:10009400AB16AA17A9188F82F5831202A0900598AF
:1000A40093F5807F647E001205E1E4F58005190272
:0200B400002D1D
:0100B6002227
:10038C00AE05EF7005C374039DFEEE14600E146091
:10039C00111460172403701CD290801AC290D29151
:1003AC008016C290C291D292C29322C290C291C2C4
:0C03BC0092D29322C290C291C292C293CE
:0103C8002212
:1001C9007F00EDB4080050529001D8F82828730236
:1001D90001F00201F40201F80201FE020204020226
:1001E9000D02021602021AD2908031D2908002C208
:1001F90090D2918029C290D2918004C290C291D2AA
:1002090092C29322C290C291D292D29322C290807A
:1002190002D290C291C292D29322C290C291C2924A
:02022900C2937E
:01022B0022B0
:1004F300D2A0D2A17F017E001205E1C2A07F017EBE
:0D050300001205E1C2A17F017E000205E1AA
:10055D00C2A0D2A17F017E001205E1D2A0D2A17F5F
:06056D00017E000205E121
:10000300C2A1C2A07F017E001205E1D2A17F017EC1
:07001300001205E1C2A12269
:10054600C2A1D2A07F017E001205E1D2A17F017E69
:07055600001205E1C2A12221
:1004D100E4F50DD2A17F01FE1205E130A00F050D5B
:1004E100E50DD3946440F412055D7F0122C2A17F22
:0104F100000A
:0104F20022E7
:0202CD008F0D93
:1002CF00E4F50EC2A1F50EE50D5480D39400400461
:1002DF00D2A08002C2A0E50D25E0F50D7F017E00C2
:1002EF001205E1D2A17F017E001205E1C2A17F01BB
:0E02FF007E001205E1050EE50EC3940840C90D
:01030D0022CD
:02034E008F0D11
:10035000E4F50EF50FF50EC2A17F017E001205E156
:10036000D2A1E50F25E0F50F30A002050F7F017E39
:10037000001205E1050EE50EC3940840DAE50D60B4
:0B038000051205468003120003AF0FBA
:01038B00224F
:100433008F0B8D0C1204F37FA01202CD1204D1AFE7
:100443000B1202CD1204D1AF0C1202CD1204D11241
:09045300055D7FE87E030205E16E
:020403008F0B5D
:10040500E4F50C1204F37FA01202CD1204D1AF0B58
:100415001202CD1204D11204F37FA11202CD1204EF
:0D042500D17F0112034E8F0C12055DAF0C4C
:0104320022A7
:0C05D50032322D35312D434C4153530080
:100587007580FFC2A6D2A5D2A7E58020E7FBC2A748
:010597002241
:10051000C2A6C2A5C2A78F807F647E001205E1D269
:0B052000A77F647E001205E1C2A72245
:10052B00D2A6C2A5C2A78F807F647E001205E1D23E
:0B053B00A77F647E001205E1C2A7222A
:100573007F381205107F0C1205107F061205107FBD
:04058300010205105C
:0505F3007F010205106C
:020484008B1ECD
:10048600EFD3940F501EED94015019ED70048F1F99
:100496008005EF2440F51FE51F4480FF120510AFCD
:0404A6001E12052BF2
:0104AA00222F
:06030E008B1B8A1C891DF7
:10031400EFD3940F5033ED9401502EED7004AE07DB
:100324008004EF2440FEEE4480FF120510AB1BAAAC
:100334001CA91D120287FF601012052B7401251DD4
:09034400F51DE4351CF51C80E4F4
:01034D00228D
:1005A800438910758DFC758B18D2ABD2AFD28E22D1
:1005B800438901758CFC758A18D2A9D2AFD28C22D6
:030000000200B744
:0C00B700787FE4F6D8FD7581200200FE81
:10028700BB010689828A83E0225002E722BBFE0275
:09029700E32289828A83E49322A8
:1002A000BB010CE58229F582E5833AF583E0225013
:1002B00006E92582F8E622BBFE06E92582F8E2225D
:0D02C000E58229F582E5833AF583E4932277
:1000C300020143E493A3F8E493A34003F68001F20F
:1000D30008DFF48029E493A3F85407240CC8C3333E
:1000E300C4540F4420C8834004F456800146F6DF0D
:1000F300E4800B01020408102040809005C8E47ED0
:10010300019360BCA3FF543F30E509541FFEE49301
:10011300A360010ECF54C025E060A840B8E493A3C8
:10012300FAE493A3F8E493A3C8C582C8CAC583CAF3
:10013300F0A3C8C582C8CAC583CADFE9DEE780BEAB
:0105D4000026
:00000001FF
