:100133007FBFDFEFF7FBFDFEFFFFFFFFFFFFFFFFCB
:04014E00020C00009F
:0B014300EF1FAC0670011E4C70F6228E
:10010F00C2B67F017E00120143D2B67F017E00028C
:02011F0001439A
:10012100C2B57F017E00120143D2B57F017E00027C
:02013100014388
:0400E0008E0E8F0FE2
:1000E4007B077A00AF03E50FAE0EA807088006CEA3
:1000F400A2E713CE13D8F81392B412010FEB1B70BE
:0B010400011ABAFFDFBBFFDC02012183
:10008F007580FFE4FFFE1200E0E4F508F509743B0C
:10009F002509F58274013508F583E493FF7E00127C
:1000AF0000E074332509F58274013508F583E49374
:1000BF00F5807F507EC31201437580FF0509E50966
:1000CF0070020508C39408E5086480948040BF80DF
:0100DF00B868
:03000000020003F8
:0C000300787FE4F6D8FD75810F02004AFA
:10000F0002008FE493A3F8E493A34003F68001F278
:10001F0008DFF48029E493A3F85407240CC8C333F2
:10002F00C4540F4420C8834004F456800146F6DFC1
:10003F00E4800B010204081020408090014EE47E02
:10004F00019360BCA3FF543F30E509541FFEE493B6
:10005F00A360010ECF54C025E060A840B8E493A37D
:10006F00FAE493A3F8E493A3C8C582C8CAC583CAA8
:10007F00F0A3C8C582C8CAC583CADFE9DEE780BE60
:0101520000AC
:00000001FF
