:10065700C2A6C2A5C2A78F807F647E001206BCD245
:0B066700A77F647E001206BCC2A72221
:0F05C9007E00CFCDCFCECCCE1201F5EF2430FF88
:1005D800D2A6C2A5C2A78F807F647E001206BCD2B5
:0B05E800A77F647E001206BCC2A722A1
:100672007F381206577F0C1206577F061206577FE5
:040682000102065714
:10028E00E4F5081206C71206720508E50875F03285
:10029E0084E5F070141204C8E4FBFA792078411258
:1002AE0000031201478E098F0AC3E509648094800A
:1002BE00500EC3E4950AF50AE49509F509750B404D
:1002CE00E4F50BAE09AF0A7C037DE81201F5741A52
:1002DE002FF8E6F50CAE09AF0A7C037DE81201F5A6
:1002EE00AA04AB057D647C00AF03AE021201F57467
:1002FE001A2FF8E6F50D7D647C00AF03AE021201F5
:10030E00F5AA04AB057D0A7C00AF03AE021201F51F
:10031E00741A2FF8E64480F50E7D0A7C00AF03AE0A
:10032E00021201F5741A2DF8E6F50F7F80120657AA
:10033E00AE09AF0A7C037DE81205D1AE09AF0A7C87
:10034E00037DE81201F57F641205C9AE09AF0A7C80
:10035E00037DE81201F57E007F64CFCDCFCECCCEEB
:10036E001201F57F0A1205C97F2E1205D8AE09AF0C
:10037E000A7C037DE81201F57E007F64CFCDCFCEDF
:10038E00CCCE1201F57E007F0ACFCDCFCECCCE12D1
:0C039E0001F5ED2430FF1205D802029793
:10068600111A3F065B4F666D7D077F6F777C395E7B
:0306960079710077
:0603AA008B2B8A2C892D2B
:1003B000E4F52EED14F52FF52EE52EC39408507BB1
:1003C000E52EB40800504D9003CEF82828730203A0
:1003D000E60203EA0203EE0203F20203F60203FE60
:1003E00002040602040ED2A4800ED2A48012D2A46B
:1003F0008016D2A4801AC2A4D2A3D2A28016C2A40C
:10040000D2A3C2A2800EC2A4C2A3D2A28006C2A45A
:10041000C2A3C2A2C3E52E952FFFE49400AB2BAA82
:100420002CA92D8F82F5831201C8F5807F647E0090
:0B0430001206BCE4F580052E0203B9A3
:01043B00229E
:10069A00C2B77F4B7E001206BCD2B77F027E000231
:0206AA0006BC8C
:10054300E4F51730B712E517C39414500B05177F62
:10055300017E001206BC80EBE517C3941440037FB1
:100563000122E4F51720B712E517C39414500B05C5
:10057300177F017E001206BC80EBE517C39414407D
:06058300037F01227F004E
:01058900224F
:10061900E4F519C2B70000D2B7000030B705751963
:0F062900018003E4F5197F057E001206BCAF19AE
:01063800229F
:1005F300E4F517F518FFF517120619EFC433333373
:100603005480FEE518C3134EF5180517E517C39478
:050613000840E5AF18EE
:0106180022BF
:02058A008F17C9
:10058C00E4F518F519F518E5175401F519E517C335
:10059C0013F517E519600FC2B70000D2B77F067EBE
:1005AC00001206BC800DC2B77F067E001206BCD2BC
:0C05BC00B700000518E518C3940840CBF8
:0105C8002210
:1006AC0012069A1205437FCC12058A7F4402058AF2
:0706C70012069A12054322FE
:1004C800E4FFF514F515F5161206AC12069A120596
:1004D800437FCC12058A7FBE12058A1205F38F145A
:1004E8001205F3EFFE7C00E42514F516EC3EF51535
:1004F80054F8FEEEB4F821E516F4FFE515F4FEEF26
:100508002401F516E43EF515FCAD16E412010EE4DF
:10051800FBFA798078BD800FAC15AD16E412010E98
:10052800E4FBFA7980783D1200038F138E128D1147
:0A0538008C10AF13AE12AD11AC1021
:010542002296
:0B06BC00EF1FAC0670011E4C70F62210
:10063900D3EF9400EE940040147D6E7C00ED1D70A4
:0D064900011CED4C70F7EF1F70E61E80E302
:010656002281
:10000300EC4D6011E8497017ED33EC3304600DE4F7
:10001300FCFFFEFD22E933E8330470F80201B3125A
:10002300017E58046009E4CC24815006285009025B
:1000330001BD2840030201BAC0E0EB4A7044B98015
:1000430006D0E0FB0201A9EF4E701CBD8008EBFF58
:10005300EAFEE9FD80EBE98DF0A4FEE5F00200EC99
:10006300E9CDF9EAFEEBFFEF89F0A4FCE5F0CE89D8
:10007300F0A42EFFE435F0CD89F0A42DFEE435F095
:100083008067EF4E7005BD80D780C3EF8BF0A4ACC3
:10009300F0EE8BF0A42CFCE435F0F8EF8AF0A42CFE
:1000A300E5F038FCE433CB8DF0A42CFCE5F03BF811
:1000B300EE8AF0A42CFCE5F038F8E433CF89F0A401
:1000C3002CFCE5F038CF3400CE89F0A42FFFE5F007
:1000D3003EFEE433C98DF0A42EFEE5F039CD8AF05F
:1000E300A42FFFE5F03EFEE43DFD33D0E0FB5007D7
:1000F3000BBB000F0201BDEC2CFCEF33FFEE33FE14
:06010300ED33FD02019541
:1001090075F020800E75F010800575F0087D007E71
:10011900007F003392D530D50312022BEC33401007
:10012900EF33FFEE33FEED33FDEC33FCD5F0ED227A
:0E013900E5F0247EA2D513CC92E7CDCEFF22B6
:10014700EDD2E7CD33EC3392D524814006E4FFFEB0
:10015700FDFC22FCE4CFCECDCC24E0501174FF800F
:10016700EDC3CC13CCCD13CDCE13CECF13CF0470AC
:07017700F030D5DE02022B7F
:10017E00E9D2E7C933E833F892D5EDD2E7CD33ECC7
:07018E0033FC5002B2D52240
:10019500EC30E7100FBF000C0EBE00080DBD0004CB
:1001A5000BEB6014A2D5EB13FCED92E7FD2274FF77
:1001B500FCFDFEFF22E480F8A2D574FF13FC7D80D0
:0301C500E480EFE4
:0300000002043CBB
:0C043C00787FE4F6D8FD75812F02048360
:1001C800BB010CE58229F582E5833AF583E02250EC
:1001D80006E92582F8E622BBFE06E92582F8E22236
:0D01E800E58229F582E5833AF583E4932250
:1001F500C2D5EC30E709B2D5E4C39DFDE49CFCEE25
:1002050030E715B2D5E4C39FFFE49EFE120239C361
:10021500E49DFDE49CFC800312023930D507C3E45C
:060225009FFFE49EFE2293
:0E022B00C3E49FFFE49EFEE49DFDE49CFC22E4
:1004480002028EE493A3F8E493A34003F68001F23A
:1004580008DFF48029E493A3F85407240CC8C333B5
:10046800C4540F4420C8834004F456800146F6DF84
:10047800E4800B0102040810204080900686E47E88
:10048800019360BCA3FF543F30E509541FFEE49379
:10049800A360010ECF54C025E060A840B8E493A340
:1004A800FAE493A3F8E493A3C8C582C8CAC583CA6B
:1004B800F0A3C8C582C8CAC583CADFE9DEE780BE23
:010699000060
:10023900BC000BBE0029EF8DF084FFADF022E4CCA9
:10024900F875F008EF2FFFEE33FEEC33FCEE9DEC72
:10025900984005FCEE9DFE0FD5F0E9E4CEFD22EDB8
:10026900F8F5F0EE8420D21CFEADF075F008EF2F02
:10027900FFED33FD4007985006D5F0F222C398FDF3
:050289000FD5F0EA2290
:00000001FF
