:100119003F065B4F666D7D077F6F777C395E79712E
:040129007FE87E03EA
:0B012D00EF1FAC0670011E4C70F622A4
:100003007590F7E59064F7603B120129E590B477AA
:1000130009900119E493F58080F2E590B4B7099053
:10002300011AE493F58080F2E590B4D70990011B9F
:10003300E493F58080F2E590B4E70990011CE49322
:10004300F58080F27590FBE59064FB603B1201291B
:10005300E590B47B0990011DE493F58080F2E5906F
:10006300B4BB0990011EE493F58080F2E590B4DB04
:100073000990011FE493F58080F2E590B4EB0990B9
:100083000120E493F58080F27590FDE59064FD60B6
:100093003B120129E590B47D09900121E493F58099
:1000A30080F2E590B4BD09900122E493F58080F2DB
:1000B300E590B4DD09900123E493F58080F2E590A7
:1000C300B4ED09900124E493F58080F27590FEE588
:1000D3009064FE7003020003120129E590B47E09C7
:1000E300900125E493F58080F2E590B4BE09900178
:1000F30026E493F58080F2E590B4DE09900127E4CD
:1001030093F58080F2E59064EE60030200039001B2
:060113002893F58080EF47
:03000000020138C2
:0C013800787FE4F6D8FD75810702000313
:00000001FF
