:10008F003F065B4F666D7D077F6F777C395E7971B9
:10009F00000000000000000100000000000000014F
:1000AF00000000010001000000000000000100013D
:1000BF00000000010000000100010001000100012B
:0B00E700EF1FAC0670011E4C70F622EB
:10000300E4FBFA90009F75F006EB1200DBEA75F053
:1000130006A42583F583E493FE740193FFEE4F2436
:10002300FF92A29000A175F006EB1200DBEA75F0D7
:1000330006A42583F583E493FE740193FFEE4F2416
:10004300FF92A39000A375F006EB1200DBEA75F0B4
:1000530006A42583F583E493FE740193FFEE4F24F6
:10006300FF92A4748F2BF58274003AF583E493F521
:10007300807F647E001200E7E4F5800BBB00010A79
:0C008300EB64084A600302000602000360
:030000000200CF2C
:0C00CF00787FE4F6D8FD7581070200037D
:0C00DB00A42582F582E5F03583F5832230
:00000001FF
