:08000E0002080000020A0000D4
:10010600758901758CFC758A18D2A9D2AFD28C225A
:10011600438910758D3C758BB0D2ABD2AFD28E228F
:040126007FA07E86B2
:0B012A00EF1FAC0670011E4C70F622A7
:03000300C2902286
:1000F2001200031201261201261201261201061213
:04010200011680FE64
:03000B000200AA46
:0400AA00C0E0C0D022
:1000AE000509E50970020508B4E80FE508B4030A6E
:1000BE00750800750900B2A0B290758CFC758A188F
:0500CE00D0D0D0E032AB
:03001B000200D30D
:0200D300C0E08B
:1000D500050BE50B7002050A6414450A7006F50A5E
:0A00E500F50BB2A1758D3C758BB0D0
:0300EF00D0E0322C
:0300000002001EDD
:0C001E00787FE4F6D8FD75810B020065C8
:10002A000200F2E493A3F8E493A34003F68001F2FA
:10003A0008DFF48029E493A3F85407240CC8C333D7
:10004A00C4540F4420C8834004F456800146F6DFA6
:10005A00E4800B010204081020408090000EE47E28
:10006A00019360BCA3FF543F30E509541FFEE4939B
:10007A00A360010ECF54C025E060A840B8E493A362
:10008A00FAE493A3F8E493A3C8C582C8CAC583CA8D
:10009A00F0A3C8C582C8CAC583CADFE9DEE780BE45
:0100160000E9
:00000001FF
