:10012F007FBFDFEFF7FBFDFE00003E4141413E0088
:10013F00000000217F0100000000274545453900E0
:10014F0000002A494949360000000C14247F04009E
:10015F000000725151514E0000003E49494926009E
:10016F00000040404F5060000000364949493600BA
:08017F000000324949493E002D
:0401E500020C000008
:0B01DA00EF1FAC0670011E4C70F622F7
:1001B600C2B67F017E001201DAD2B67F017E00024E
:0201C60001DA5C
:1001C800C2B57F017E001201DAD2B57F017E00023E
:0201D80001DA4A
:040187008E0E8F0F3A
:10018B007B077A00AF03E50FAE0EA807088006CEFB
:10019B00A2E713CE13D8F81392B41201B6EB1B706F
:0B01AB00011ABAFFDFBBFFDC0201C835
:10000300D2A07580FFE4FFFE120187E4F508F5092D
:10001300E4F50AF50BE50DAE0C7803C333CE33CE0E
:10002300D8F92437F58274013EF583E582250BF573
:1000330082E583350AF583E493FF7E00120187741A
:100043002F250BF5827401350AF583E493F5807F40
:10005300647E001201DAE4FFFE120187050BE50B53
:100063007002050AC39408E50A6480948040A605DB
:1000730009E50970020508C394A0E508648094802B
:10008300408E050DE50D7002050CC3940AE50C6462
:10009300809480500302000EE4F50CF50D02000E6F
:030000000200A358
:0C00A300787FE4F6D8FD75810F0200EABA
:1000AF00020003E493A3F8E493A34003F68001F264
:1000BF0008DFF48029E493A3F85407240CC8C33352
:1000CF00C4540F4420C8834004F456800146F6DF21
:1000DF00E4800B01020408102040809001E5E47ECB
:1000EF00019360BCA3FF543F30E509541FFEE49316
:1000FF00A360010ECF54C025E060A840B8E493A3DD
:10010F00FAE493A3F8E493A3C8C582C8CAC583CA07
:10011F00F0A3C8C582C8CAC583CADFE9DEE780BEBF
:0101E9000015
:00000001FF
