:08000E0002080000020A0000D4
:1000F000758901758CFC758A18D2A9D2AFD28C2271
:10010000438910758D3C758BB0D2ABD2AFD28E22A5
:080003001200F012010080FE62
:03000B000200AA46
:0400AA00C0E0C0D022
:1000AE000509E50970020508B4E80DE508B4030872
:0E00BE00750800750900B2A0758CFC758A18D3
:0500CC00D0D0D0E032AD
:03001B000200D10F
:0200D100C0E08D
:1000D300050BE50B7002050A6414450A7006F50A60
:0A00E300F50BB2A1758D3C758BB0D2
:0300ED00D0E0322E
:0300000002001EDD
:0C001E00787FE4F6D8FD75810B020065C8
:10002A00020003E493A3F8E493A34003F68001F2E9
:10003A0008DFF48029E493A3F85407240CC8C333D7
:10004A00C4540F4420C8834004F456800146F6DFA6
:10005A00E4800B010204081020408090000EE47E28
:10006A00019360BCA3FF543F30E509541FFEE4939B
:10007A00A360010ECF54C025E060A840B8E493A362
:10008A00FAE493A3F8E493A3C8C582C8CAC583CA8D
:10009A00F0A3C8C582C8CAC583CADFE9DEE780BE45
:0100160000E9
:00000001FF
