:10012A003F065B4F666D7D077F6F777C395E79711D
:0401480002080000A9
:0B000600EF1FAC0670011E4C70F622CC
:07013A00D288D2A8D2AF2247
:07014100D28AD2AAD2AF223C
:1000DB0012013A120141D2A2D2A3D2A4742A250949
:1000EB00F58274013508F583E493F5807F647E0017
:0800FB00120006E4F58080E428
:030003000200A256
:1000A200C0E0C0D075D000C004C006C0077FE87EA3
:1000B2000312000620B21730B2FD0509E5097002ED
:1000C2000508640A45087004F508F509B2A0D007CE
:0900D200D006D004D0D0D0E032F9
:03001300020103E4
:10010300C0E0C0D075D000C004C006C0077FE87E41
:100113000312000620B30530B3FDB2A1D007D00609
:07012300D004D0D0D0E0327F
:03000000020016E5
:0C001600787FE4F6D8FD75810902005DDA
:100022000200DBE493A3F8E493A34003F68001F219
:1000320008DFF48029E493A3F85407240CC8C333DF
:10004200C4540F4420C8834004F456800146F6DFAE
:10005200E4800B0102040810204080900148E47EF5
:10006200019360BCA3FF543F30E509541FFEE493A3
:10007200A360010ECF54C025E060A840B8E493A36A
:10008200FAE493A3F8E493A3C8C582C8CAC583CA95
:10009200F0A3C8C582C8CAC583CADFE9DEE780BE4D
:01014C0000B2
:00000001FF
