:100115007FBFDFEFF7FBFDFE00003E4141413E00A2
:10012500000000217F0100000000274545453900FA
:1001350000002A494949360000000C14247F0400B8
:100145000000725151514E0000003E4949492600B8
:10015500000040404F5060000000364949493600D4
:080165000000324949493E0047
:0401CB00020C000022
:0B01C000EF1FAC0670011E4C70F62211
:10019C00C2B67F017E001201C0D2B67F017E000282
:0201AC0001C090
:1001AE00C2B57F017E001201C0D2B57F017E000272
:0201BE0001C07E
:04016D008E0E8F0F54
:100171007B077A00AF03E50FAE0EA807088006CE15
:10018100A2E713CE13D8F81392B412019CEB1B70A3
:0B019100011ABAFFDFBBFFDC0201AE69
:10008F007580FFE4F508F509E4F50AF50BE509AE0F
:10009F00087803C333CE33CED8F9241DF58274010B
:1000AF003EF583E582250BF582E583350AF583E47A
:1000BF0093FF7E0012016D7415250BF582740135C7
:1000CF000AF583E493F5807F647E001201C075808A
:1000DF00FF050BE50B7002050AC39408E50A64805F
:1000EF00948040A97F507EC31201C07F507EC312FF
:1000FF0001C00509E50970020508C3940AE5086403
:06010F0080948040832271
:03000000020003F8
:0C000300787FE4F6D8FD75810F02004AFA
:10000F0002008FE493A3F8E493A34003F68001F278
:10001F0008DFF48029E493A3F85407240CC8C333F2
:10002F00C4540F4420C8834004F456800146F6DFC1
:10003F00E4800B01020408102040809001CBE47E85
:10004F00019360BCA3FF543F30E509541FFEE493B6
:10005F00A360010ECF54C025E060A840B8E493A37D
:10006F00FAE493A3F8E493A3C8C582C8CAC583CAA8
:10007F00F0A3C8C582C8CAC583CADFE9DEE780BE60
:0101CF00002F
:00000001FF
