:0E02E9001202D512022C12000012013980F808
:0B02F700EF1FAC0670011E4C70F622D9
:10026F00073B81838587898B8D07348082848688BD
:0B027F008A8C07420119202105242071
:1001F700E4FEC2B500C2B600D2B500EF1392B4EF69
:10020700C313FFD2B600C2B6000EBE08EEE4FEED81
:100217001392B4EDC313FDD2B600C2B6000EBE08EA
:04022700EEC2B5006E
:01022B0022B0
:1001AC00E4FEFDFBC2B500C2B600D2B500EF13925F
:1001BC00B4EFC313FFD2B600C2B6000EBE08EEE415
:1001CC00FEA2B4E433FDC43333335480FFEBC313CA
:1001DC004FFBD2B600C2B6000EBE08E5C2B500D2C7
:0A01EC00B600C2B400D2B400AF03A5
:0101F60022E6
:10022C00E4FCFD7F8E1201F774342CF8E6FF744267
:10023C002CF8E6FD1201F70CBC07ED7D807F8E02D9
:02024C0001F7B8
:1002BF00E4FC743B2CF8E6FF1201AC74422CF8A658
:0502CF00070CBC07ED67
:0102D4002207
:10028B00C2A6C2A5C2A78F807F647E001202F7D2DE
:0B029B00A77F647E001202F7C2A722BA
:06024E00C4540F2430FF30
:10025400D2A6C2A5C2A78F807F647E001202F7D205
:0B026400A77F647E001202F7C2A722F1
:1002D5007F3812028B7F0C12028B7F0612028B7FF6
:0402E5000102028B85
:050302007F0102028BE7
:080003008F498B4A8A4B894C9E
:10000B00E4F54DEDD3940140030200ACE549940FA8
:10001B0040030200ACEDC394015043AB4AAA4BA979
:10002B004C1202A6607BC374109549FFE54DC39F2C
:10003B00E54D5006248025498004254924B0FF1244
:10004B00028BAB4AAA4BA94C1202A6FF12025474A4
:10005B0001254CF54CE4354BF54B054D80BDAB4ABA
:10006B00AA4BA94C1202A66038C374109549FFE540
:10007B004DC39FE54D500624C025498004254924D6
:10008B0070FF12028BAB4AAA4BA94C1202A6FF12AD
:10009B0002547401254CF54CE4354BF54B054D8062
:0100AB00BD97
:0100AC002231
:100139007FC012028BE54412024EE54412024F7F42
:100149002D120254E54312024EE54312024F7F2D50
:10015900120254E54212024EE54212024F7F80120A
:10016900028B7F321202547F30120254E548120288
:100179004EE54812024F7F2D120254E54612024EF7
:10018900E54612024F7F2D120254E54512024EE553
:100199004512024F7F8D12028BE54754072430FF29
:0301A900020254FB
:030000000200AD4E
:0C00AD00787FE4F6D8FD75814D0200F468
:1002A600BB010689828A83E0225002E722BBFE0256
:0902B600E32289828A83E4932289
:1000B9000202E9E493A3F8E493A34003F68001F272
:1000C90008DFF48029E493A3F85407240CC8C33348
:1000D900C4540F4420C8834004F456800146F6DF17
:1000E900E4800B010204081020408090026FE47E36
:1000F900019360BCA3FF543F30E509541FFEE4930C
:10010900A360010ECF54C025E060A840B8E493A3D2
:10011900FAE493A3F8E493A3C8C582C8CAC583CAFD
:10012900F0A3C8C582C8CAC583CADFE9DEE780BEB5
:01028A000073
:00000001FF
