:1000BB0072756E6E696E675F547572746C655F5F97
:1000CB00005765695F50656E675F4368616F5F5F7F
:0200DB005F00C4
:1000DD0012014D7BFF7A0079BBE4FDFF1200037B1B
:0E00ED00FF7A0079CC7D01E4FF12000380FE53
:10011900C2A6C2A5C2A78F807F017E001200FBD2B2
:0B012900A77F017E001200FBC2A7228E
:0A009600AB09AA0AA90B120134FFFE
:1000A000D2A6C2A5C2A78F807F017E001200FBD21C
:0B00B000A77F017E001200FBC2A72208
:10014D007F381201197F0C1201197F061201197FD8
:04015D000102011981
:050178007F01020119E6
:080003008F088B098A0A890BA2
:10000B00E4F50CEDD394014003020095E508940F41
:10001B005078EDC394015039AB09AA0AA90B120110
:10002B00346067C374109508FFE50CC39FE50C5053
:10003B0006248025088004250824B0FF120119121C
:10004B0000967401250BF50BE4350AF50A050C80B7
:10005B00C7AB09AA0AA90B120134602EC374109501
:10006B0008FFE50CC39FE50C500624C0250880044F
:10007B0025082470FF1201191200967401250BF547
:0A008B000BE4350AF50A050C80C7E6
:010095002248
:0B016D00EF1FAC0670011E4C70F62264
:1000FB00D3EF9400EE940040147D6E7C00ED1D70E8
:0D010B00011CED4C70F7EF1F70E61E80E345
:0101180022C4
:0300000002016199
:0C016100787FE4F6D8FD75810C0200DD0B
:10013400BB010689828A83E0225002E722BBFE02C9
:09014400E32289828A83E49322FC
:00000001FF
